:100000000C9475000C9492000C9492000C94920045
:100010000C9492000C9492000C9492000C94920018
:100020000C9492000C9445020C9492000C94920053
:100030000C9492000C9492000C9492000C949200F8
:100040000C9492000C9492000C9492000C949200E8
:100050000C9492000C9492000C9492000C945F0209
:100060000C9492000C9492000C9492000C949200C8
:100070000C9492000C9492000C9492000C949200B8
:100080000C9492000C9492000C9492000C949200A8
:100090000C9476020C9492000C9492000C949200B2
:1000A0000C9492000C9492000C949200C002C50231
:1000B000CA02CF02D402D902DE029503E302E802AB
:1000C000ED02F202950395039503950395039503BD
:1000D00095039503F50242054A05780552055A0530
:1000E000780562056A057805710511241FBECFEFFA
:1000F000DAE0DEBFCDBF11E0A0E0B1E0E4EBF0E17B
:1001000002C005900D92A83AB107D9F721E0A8EAFC
:10011000B1E001C01D92A63DB207E1F70E94C20402
:100120000C9458080C940000862798E067E0880F2C
:1001300008F486279A95D9F708952AB1242B2AB96D
:100140002BB1342F309523233BB1432B3FB7F89489
:10015000FC01680F791FE617F707C1F0819198E05D
:100160004BB9000000C087FF2BB9880F000000C00A
:1001700000C000C02BB900C000C000C000C000C05B
:1001800000C000C000C09A9559F7E5CF3FBF089561
:100190009B01220F331F620F731F0E949D008FEA85
:1001A00094E00197F1F700C00000089540E20C943C
:1001B000C80040E20C949D0027E030E090E05C989D
:1001C000EFE8F1E03197F1F700C00000AC01022E3A
:1001D00002C0559547950A94E2F7BA0161707727F6
:1001E00040FD06C0EFE8F1E03197F1F700C00000F4
:1001F0005C9AEFE8F1E03197F1F700C00000672B5F
:1002000031F0EFE8F1E03197F1F700C00000215044
:100210003109A8F65C988FE891E00197F1F700C0EA
:1002200000005C9AEFE8F1E03197F1F700C00000C0
:1002300008955C988FED9EE20197F1F700C00000F1
:100240005C9A8FED91E00197F1F700C000005C9897
:100250008FEC97E00197F1F700C000005C9A9AE1FB
:100260009A95F1F700C00895AC015C98E1E0F0E0E8
:100270002A9895B18FEF860F9F0102C0220F331F7E
:100280008A95E2F724233523232B11F420E001C0C3
:1002900024E0922B95B929988FE891E00197F1F726
:1002A00000C00000299A8FE891E00197F1F700C0A3
:1002B00000006150E9F62A985C9A0895CF93DF9385
:1002C000C8E8D1E060E1899199910E94340121E070
:1002D000CE39D207B9F7C0E0D1E081E0C838D807FD
:1002E00091F089919991009751F48FEF9BED25E062
:1002F000815090402040E1F700C00000EECF69E05F
:100300000E943401EACFDF91CF91089590917A0055
:10031000976090937A0090E490937B0090937C0098
:10032000883028F0885090917B00906203C09091B3
:100330007B009F7D90937B0090917C008770892B40
:1003400080937C0080917A00806880937A008FE3AC
:100350009FE10197F1F700C0000080917A0080646E
:1003600080937A0080917A0086FDFCCF809178009E
:100370002091790090E0922B08958EE580937C0087
:1003800080917A00806880937A0080917B008F7DD5
:1003900080937B008FE39FE10197F1F700C000009D
:1003A00080917A00806480937A0080917A0086FD43
:1003B000FCCF80917A00806480937A0080917A00EB
:1003C00086FDFCCF209178008091790030E0382BB9
:1003D000032E000C440B550B64EB7BE281E190E0B3
:1003E0000E94F006C901089587EC80937C0080E2AA
:1003F00080937B0080917A00877D80937A00809142
:100400007A00806880937A008FE39FE10197F1F78B
:1004100000C0000080917A00806480937A0080910F
:100420007A0086FDFCCF80917A00806480937A0008
:1004300080917A0086FDFCCF809178002091790030
:1004400090E0922B0895CF93DF9300D0CDB7DEB725
:100450002091D2013091D3012115310511F426EDFF
:1004600031E0CE010196821B930B0F900F90DF912C
:10047000CF910895F894880F8093BA0085EC80930B
:10048000BC008FEF8093B50108951F920F920FB6B5
:100490000F9211248F939F937894189909C080919B
:1004A000BA019091BB0101969093BB018093BA0170
:1004B0009F918F910F900FBE0F901F9018951F92D4
:1004C0000F920FB60F9211248F939F938091CC01BE
:1004D0009091CD0101969093CD018093CC019F9195
:1004E0008F910F900FBE0F901F9018951F920F9233
:1004F0000FB60F9211242F933F934F935F936F93F7
:100500007F938F939F93AF93BF93EF93FF938091CC
:10051000B900887F8038A9F068F4882309F4C5C140
:10052000803609F0C4C185EC8093BC008FEF8093C6
:10053000B501C0C1883A09F40BC1883B09F408C170
:10054000B6C18091B5018F3F09F058C06091BB00E2
:100550006093A00180E00E9494008093B601109205
:10056000B5011092AA01E091A0018E2F90E0853193
:10057000910508F0DAC0FC01EA5AFF4F0C940F070E
:100580008091CE019091CF0134C08091AE019091C5
:10059000AF012FC08091C9019091CA012AC08091FA
:1005A000B3019091B40125C08091D0019091D10107
:1005B00020C08091C5019091C6011BC08091BF01F0
:1005C0009091C00116C08091BD019091BE0111C0F3
:1005D0008091AC019091AD010CC08091B1019091DE
:1005E000B20107C00E94230204C08091C101909112
:1005F000C2019093A9018093A80197C08F5F809357
:10060000B5019091A0019C38A9F5813029F4809121
:10061000BB008093B8010DC0823029F48091BB00EB
:100620008093B70106C0833069F48091BB0080934A
:10063000B9016091BB008091B6010E949400809343
:10064000B60173C09091BB002091B60129130CC074
:10065000843051F481E08093B00167C02091BB00E9
:100660003091B601321769F08091AA018F5F8093B3
:10067000AA015BC0813091F78091BB008093BC01DF
:10068000D8CF823089F7973829F48091BC018093C4
:100690009E014BC09D3841F48091BC018F3F11F405
:1006A000469A43C0469841C09E3841F48091BC01AF
:1006B0008F3F11F42C9A39C02C9837C09F3841F4E1
:1006C0008091BC018F3F11F42E9A2FC02E982DC01F
:1006D000903941F48091BC018F3F11F4479A25C0B5
:1006E000479823C0913941F48091BC018F3F11F4A8
:1006F000729A1BC0729819C0923989F48091BC011A
:100700008F3F11F42D9A11C0813029F42D9A82E087
:100710008093BC010AC02D981092BC0106C0933989
:1007200009F0A2CF8091BC0187BD85EC8093BC000D
:100730008091A001823909F0BDC08091BC01823056
:1007400009F0B8C085E88A95F1F700002D98B2C08D
:1007500082E08A95F1F700008091A0018F3009F4C2
:1007600064C078F49091B5018C3030F4883060F535
:10077000873008F04BC028C08D3009F44CC0A0F180
:100780004FC0833109F46CC040F49091B5018131C0
:1007900009F457C008F450C059C0873841F018F424
:1007A000843191F071C08C58883008F06DC0809110
:1007B000B501853008F05FC08091B6018093BB0021
:1007C0008FEF8093B60163C08091B501811103C0A2
:1007D0008091A8015AC0813019F48091A90155C0B7
:1007E000823009F048C044C0911103C08091B80123
:1007F0004CC0913019F48091B70147C0923019F480
:100800008091B90142C09330B1F532C0911125C039
:1008100080919F013AC0911120C0369B1BC034C00B
:1008200091111BC01C9B16C02FC08091B501811176
:100830001DC01E9B0FC028C091110FC0379B0AC05E
:1008400023C091110AC0629B05C01EC0911105C052
:100850001D991AC01092BB001AC0913061F408C0F3
:100860008091B501811102C087B50FC0813019F4A4
:100870008091B6010AC08FEF8093BB008091AA01DE
:100880008F5F8093AA0103C08FEF8093BB006091BC
:10089000BB008091B6010E9494008093B6018091C4
:1008A000B5018F5F8093B50102C085ED01C085EC75
:1008B0008093BC00FF91EF91BF91AF919F918F9179
:1008C0007F916F915F914F913F912F910F900FBE4C
:1008D0000F901F901895CF93DF9310BA88E78AB9CD
:1008E0001BB81DB886EF84B980EC87B917BC81E0CE
:1008F00085BD81E884BDEEE6F0E080818160808383
:1009000090E080E80FB6F8948093610090936100C6
:100910000FBE8AE20E943A02E8E6F0E08081816040
:100920008083EBE6F0E08081816080837894C7EB80
:10093000D1E08FEF898388838A8361E070E0CE0104
:100940000E94D6000E945E010E941901198218823D
:100950001A8261E070E0CE010E94D60082ED87BD70
:1009600099E288E10FB6F894A895809360000FBED5
:100970009093600010929F018FE180939E01DF9120
:10098000CF9108950E946B0410E001ED3EE1F32E3B
:10099000C0E0D4E0499905C08091AA018F5F80939F
:1009A000AA018091AA01833340F00093BC008AE23F
:1009B0000E943A021092AA017894A8958091CC01E5
:1009C0009091CD0183319A47A8F02091BA013091DE
:1009D000BB01F29EC001F39E900D11249093BE01C5
:1009E0008093BD011092BB011092BA011092CD010B
:1009F0001092CC018091B001882341F061E070E059
:100A000087EB91E00E94D6001092B00190919E0178
:100A1000903200F580919F01981758F4815080938F
:100A20009F0188E50E94DC0080919F018F710E94E8
:100A3000DC0080919F0190919E01891758F48F5F8F
:100A400080939F0188E50E94DC0080919F018F7157
:100A50000E94DC001A3068F41F5F812F90E0FC01D7
:100A60003197EA30F10508F043C0E559FF4F0C9487
:100A70000F0787E00E9486019093CF018093CE01FB
:100A800010E088CF86E00E9486019093AF018093AA
:100A9000AE0180CF85E00E9486019093CA018093C9
:100AA000C90178CF84E00E9486019093B4018093BD
:100AB000B30170CF81E00E9486019093D1018093B1
:100AC000D00168CF80E00E9486019093C601809398
:100AD000C50160CF0E94BD019093AD018093AC0130
:100AE00059CF0E94F4019093B2018093B10152CF8B
:100AF0008AE00E9486019093C0018093BF012091FB
:100B0000C3013091C4012817390720F49093C40120
:100B10008093C3012091C7013091C80182179307C8
:100B200020F49093C8018093C7018091AB018F5F3F
:100B30008093AB018D3308F42DCF6091C301709188
:100B4000C4018091C7019091C801860F971F9695A7
:100B50008795681B790B80E090E00E94F50524EFF3
:100B60003DEF44E35FE30E945B060E94C60570937D
:100B7000C2016093C101D093C801C093C701109214
:100B8000C4011092C3011092AB0104CF0E943A0637
:100B900088F09F5798F0B92F9927B751B0F0E1F03E
:100BA000660F771F881F991F1AF0BA95C9F714C0EE
:100BB000B13091F00E945406B1E008950C945406AF
:100BC000672F782F8827B85F39F0B93FCCF3869527
:100BD00077956795B395D9F73EF490958095709584
:100BE00061957F4F8F4F9F4F0895E89409C097FB01
:100BF0003EF490958095709561957F4F8F4F9F4FF4
:100C00009923A9F0F92F96E9BB279395F695879537
:100C100077956795B795F111F8CFFAF4BB0F11F4FA
:100C200060FF1BC06F5F7F4F8F4F9F4F16C08823A1
:100C300011F096E911C0772321F09EE8872F762FD7
:100C400005C0662371F096E8862F70E060E02AF018
:100C50009A95660F771F881FDAF7880F9695879504
:100C600097F9089557FD9058440F551F59F05F3F6D
:100C700071F04795880F97FB991F61F09F3F79F0BE
:100C800087950895121613061406551FF2CF469540
:100C9000F1DF08C0161617061806991FF1CF8695C2
:100CA0007105610508940895E894BB2766277727A6
:100CB000CB0197F908950E946E060C94DF060E94FE
:100CC000D10638F00E94D80620F0952311F00C943C
:100CD000C8060C94CE0611240C9455060E943206C8
:100CE00070F3959FC1F3950F50E0551F629FF0017F
:100CF000729FBB27F00DB11D639FAA27F00DB11D98
:100D0000AA1F649F6627B00DA11D661F829F222720
:100D1000B00DA11D621F739FB00DA11D621F839FA7
:100D2000A00D611D221F749F3327A00D611D231F7D
:100D3000849F600D211D822F762F6A2F11249F57CB
:100D400050409AF0F1F088234AF0EE0FFF1FBB1FCE
:100D5000661F771F881F91505040A9F79E3F51058D
:100D600080F00C94C8060C9455065F3FE4F3983E5F
:100D7000D4F3869577956795B795F795E7959F5F37
:100D8000C1F7FE2B880F911D9695879597F90895C9
:100D900097F99F6780E870E060E008959FEF80EC2E
:100DA000089500240A9416161706180609060895D1
:100DB00000240A9412161306140605060895092E37
:100DC0000394000C11F4882352F0BB0F40F4BF2BA6
:100DD00011F460FF04C06F5F7F4F8F4F9F4F0895E6
:100DE000052E97FB1EF400940E94070757FD07D0BD
:100DF0000E94150707FC03D04EF40C94070750958A
:100E00004095309521953F4F4F4F5F4F08959095F6
:100E10008095709561957F4F8F4F9F4F0895EE0F8E
:100E2000FF1F0590F491E02D0994A1E21A2EAA1B50
:100E3000BB1BFD010DC0AA1FBB1FEE1FFF1FA2178A
:100E4000B307E407F50720F0A21BB30BE40BF50B87
:100E5000661F771F881F991F1A9469F76095709510
:100E6000809590959B01AC01BD01CF0108950F9332
:100E70001F93CF93DF938230910510F482E090E0CE
:100E8000E091D401F091D50120E030E0A0E0B0E0A5
:100E9000309719F140815181028113814817590718
:100EA000C8F08417950769F4109731F012960C93E7
:100EB000129713961C9327C00093D4011093D50169
:100EC00022C02115310519F04217530718F49A0171
:100ED000BD01EF01DF01F801DBCF21153105F9F08C
:100EE000281B390B2430310580F48A819B816115E0
:100EF000710521F0FB019383828304C09093D50197
:100F00008093D401FE01329644C0FE01E20FF31F2C
:100F10008193919322503109398328833AC02091DB
:100F2000D2013091D301232B41F42091A3013091C0
:100F3000A4013093D3012093D2012091A1013091DB
:100F4000A2012115310541F42DB73EB74091A5010D
:100F50005091A601241B350BE091D201F091D301F1
:100F6000E217F307A0F42E1B3F0B2817390778F080
:100F7000AC014E5F5F4F2417350748F04E0F5F1FDF
:100F80005093D3014093D2018193919302C0E0E04A
:100F9000F0E0CF01DF91CF911F910F910895CF9392
:100FA000DF93009709F481C0FC013297138212820B
:100FB000A091D401B091D501109781F420813181A5
:100FC000820F931F2091D2013091D3012817390746
:100FD00051F5F093D301E093D20167C0ED0120E019
:100FE00030E0CE17DF0740F44A815B819E01411556
:100FF0005105F1F0EA01F5CFD383C28340815181DD
:10100000840F951FC817D90759F488819981840FD7
:10101000951F0296918380838A819B81938382832B
:101020002115310529F4F093D501E093D4013DC099
:10103000E901FB83EA8349915991C40FD51FEC174D
:10104000FD0761F480819181840F951F0296E9016B
:1010500099838883828193819B838A83E0E0F0E097
:1010600012968D919C911397009719F0FD01DC0168
:10107000F7CF8D919C9111979D012E5F3F4F820F6D
:10108000931F2091D2013091D3012817390769F4B9
:10109000309729F41092D5011092D40102C0138226
:1010A0001282B093D301A093D201DF91CF91089522
:0410B000F894FFCFE2
:1010B4001100000001000000C100A801B1014501B8
:1010C4000401C50080016C01C600BD018401C70094
:1010D400BD018401BD00020111000000F200000105
:1010E4000001820126000801E0000001040108015A
:1010F4000B010C0111010D010E0100010401080195
:10110400130114012F0129012401E100000104014C
:1011140008010B010C0111010D010E010001040174
:101124000801130114012F012901240126000801DB
:10113400FD000001080129008000F80146020503B2
:10114400400440054006400740084009030A1F1FA9
:08115400FF0000D6012000009D
:00000001FF
