:100000000C9460000C947D000C947D000C947D0099
:100010000C947D000C947D000C947D000C947D006C
:100020000C947D000C9429020C947D000C947D00AE
:100030000C947D000C947D000C947D000C947D004C
:100040000C947D000C947D000C947D000C947D003C
:100050000C947D000C947D000C947D000C94420265
:100060000C947D000C947D000C947D000C947D001C
:100070000C947D000C947D000C947D000C947D000C
:100080000C947D000C947D000C947D000C947D00FC
:100090000C9459020C947D000C947D000C947D000E
:1000A0000C947D000C947D000C947D0054055C053F
:1000B0008A0564056C058A0574057C058A05830537
:1000C00011241FBECFEFDAE0DEBFCDBF11E0A0E00C
:1000D000B1E0E8EDF0E102C005900D92A63AB1075B
:1000E000D9F721E0A6EAB1E001C01D92A03DB20718
:1000F000E1F70E94E9040C946A080C9400002AB10C
:10010000242B2AB92BB1342F309523233BB1432B19
:100110003FB7F894FC01680F791FE617F707C1F0A5
:10012000819198E04BB9000000C087FF2BB9880F80
:10013000000000C000C000C02BB900C000C000C05B
:1001400000C000C000C000C000C09A9559F7E5CFBC
:100150003FBF08959B01220F331F620F731F0E9440
:100160007F008FEA94E00197F1F700C00000089546
:1001700040E20C94AA0040E20C947F0027E030E0BB
:1001800090E05C98EFE8F1E03197F1F700C00000F3
:10019000AC01022E02C0559547950A94E2F7BA01C8
:1001A0006170772740FD06C0EFE8F1E03197F1F785
:1001B00000C000005C9AEFE8F1E03197F1F700C071
:1001C0000000672B31F0EFE8F1E03197F1F700C064
:1001D000000021503109A8F65C988FE891E0019762
:1001E000F1F700C000005C9AEFE8F1E03197F1F719
:1001F00000C0000008955C988FED9EE20197F1F732
:1002000000C000005C9A8FED91E00197F1F700C00B
:1002100000005C988FEC97E00197F1F700C00000B8
:100220005C9A9AE19A95F1F700C00895AC015C9848
:10023000E1E0F0E02A9895B18FEF860F9F0102C0B0
:10024000220F331F8A95E2F724233523232B11F441
:1002500020E001C024E0922B95B929988FE891E025
:100260000197F1F700C00000299A8FE891E001970B
:10027000F1F700C000006150E9F62A985C9A0895F1
:10028000CF93DF93C8E8D1E060E1899199910E9412
:10029000160121E0CE39D207B9F7C0E0D1E081E004
:1002A000C838D80791F089919991009751F48FEF50
:1002B0009BED25E0815090402040E1F700C0000018
:1002C000EECF69E00E941601EACFDF91CF91089549
:1002D00090917A00976090937A0090E490937B00DD
:1002E00090937C00883028F0885090917B00906239
:1002F00003C090917B009F7D90937B0090917C0048
:100300008770892B80937C0080917A00806880932D
:100310007A008FED9EE20197F1F700C00000809116
:100320007A00806480937A0080917A0086FDFCCF09
:10033000809178002091790090E0922B08958EE5CD
:1003400080937C0080917A00806880937A0080910D
:100350007B008F7D80937B008FED9EE20197F1F70C
:1003600000C0000080917A00806480937A008091C0
:100370007A0086FDFCCF80917A00806480937A00B9
:1003800080917A0086FDFCCF2091780080917900E1
:1003900030E0382B032E000C440B550B64EB7BE252
:1003A00081E190E00E940207C901089587EC8093E3
:1003B0007C0080E280937B0080917A00877D80932F
:1003C0007A0080917A00806880937A008FED9EE2B7
:1003D0000197F1F700C0000080917A00806480935B
:1003E0007A0080917A0086FDFCCF80917A0080644B
:1003F00080937A0080917A0086FDFCCF809178000E
:100400002091790090E0922B0895CF93DF9300D054
:10041000CDB7DEB72091CC013091CD01211531054A
:1004200011F420ED31E0CE010196821B930B0F9069
:100430000F90DF91CF910895F894880F8093BA00C0
:1004400085EC8093BC008FEF8093B0018093C50151
:1004500008951F920F920FB60F9211248F939F93BE
:10046000189909C08091B4019091B50101969093BB
:10047000B5018093B4019F918F910F900FBE0F90A3
:100480001F9018951F920F920FB60F9211248F9301
:100490009F938091C6019091C70101969093C701E7
:1004A0008093C6019F918F910F900FBE0F901F9068
:1004B00018951F920F920FB60F9211242F933F930E
:1004C0004F935F936F937F938F939F93AF93BF935C
:1004D000EF93FF938091B900887F803669F030F404
:1004E00081110CC285ED8093BC0003C2803859F0A5
:1004F000883A09F4BBC002C285EC8093BC008FEF40
:100500008093B001FEC12091B0012F3F49F480914A
:10051000BB008093C4011092B0011092C5018AC043
:100520002F5F2093B0019091C40131E09C3809F015
:1005300030E081E0213009F080E0332339F0882376
:1005400029F08091BB008093B20174C0223039F44D
:10055000332389F08091BB008093B1016BC02330BD
:1005600051F4332341F08091BB008093B30181E0CB
:100570008093AB015FC0973841F4882309F45AC0D7
:100580008091BB0080939E0155C09D3859F488230B
:1005900009F450C08091BB008F3F11F4469A4AC0C5
:1005A000469848C09E3859F4882309F443C0809186
:1005B000BB008F3F11F42C9A3DC02C983BC09F3854
:1005C00051F48823B9F18091BB008F3F11F42E9A2A
:1005D00031C02E982FC0903951F4882359F1809161
:1005E000BB008F3F11F4479A25C0479823C091392B
:1005F00051F48823F9F08091BB008F3F11F4729A77
:1006000019C0729817C0923971F4882399F08091BB
:10061000BB008F3F21F08091BB00813011F42D9AF7
:1006200009C02D9807C0933929F4882319F08091C7
:10063000BB0087BD85EC8093BC002091BB0091E09E
:100640008091C401823909F090E081E03091B001DD
:10065000313009F080E0892309F453C1213009F0D9
:1006600050C180EA8A95F1F72D984BC19091C40151
:1006700031E0911130E04091C50181E0411180E00D
:10068000332329F0882319F08091C80126C121E085
:10069000413009F020E0332329F0222319F0809122
:1006A000C9011BC131E0913009F030E0882329F005
:1006B000332319F08091A90110C1222329F033239B
:1006C00019F08091AA0109C131E0923009F030E0BF
:1006D000882329F0332319F08091C201FEC0222320
:1006E00029F0332319F08091C301F7C031E0933032
:1006F00009F030E0882329F0332319F08091AE010E
:10070000ECC0222329F0332319F08091AF01E5C01A
:1007100031E0943009F030E0882329F0332319F0D8
:100720008091CA01DAC0222329F0332319F0809185
:10073000CB01D3C031E0953009F030E0882329F0B7
:10074000332319F08091BE01C8C0222329F033233E
:1007500019F08091BF01C1C031E0963009F030E05E
:10076000882329F0332319F08091B801B6C02223E1
:1007700029F0332319F08091B901AFC0973029F4E3
:10078000882319F080919F01A8C031E0983009F0CA
:1007900030E0882329F0332319F08091B6019DC001
:1007A000222329F0332319F08091B70196C031E05C
:1007B000993009F030E0882329F0332319F0809133
:1007C000A7018BC0222329F0332319F08091A801BF
:1007D00084C031E09A3009F030E0882329F03323D7
:1007E00019F08091AC0179C0222329F0332319F04C
:1007F0008091AD0172C031E09B3009F030E0882378
:1008000029F0332319F00E94050267C0222339F032
:10081000332329F00E9405029093BB0060C031E0B1
:100820009C3009F030E0882329F0332319F08091BF
:10083000B20153C0222329F0332319F08091B10172
:100840004CC0423029F4332319F08091B30145C0E4
:100850009D3029F4882371F1369B23C03DC09E3022
:1008600029F4882339F11C9B1CC036C09F3029F421
:10087000882301F11E9B15C02FC0903129F48823D5
:10088000C9F0379B0EC028C0913129F4882391F01C
:10089000629B07C021C0923139F4882359F01D9919
:1008A0001BC01092BB001BC0933121F4882311F0B0
:1008B00087B513C031E0943109F030E0882329F086
:1008C000332319F08091BA0108C0222329F0332381
:1008D00019F08091BB0101C08FEF8093BB00809124
:1008E000C5018F5F8093C50185E08A95F1F700000F
:1008F00005C08091BC0084FDFCCF03C085EC8093D3
:10090000BC00FF91EF91BF91AF919F918F917F912B
:100910006F915F914F913F912F910F900FBE0F906C
:100920001F901895CF93DF9310BA88E78AB91BB848
:100930001DB886EF84B980EC87B917BC81E085BD0E
:1009400081E884BDEEE6F0E080818160808390E004
:1009500080E80FB6F89480936100909361000FBE19
:100960008AE20E941C02E8E6F0E0808181608083D8
:10097000EBE6F0E08081816080837894C1EBD1E088
:100980008FEF898388838A8361E070E0CE010E94C3
:10099000B8000E9440010E94FB00198218821A824E
:1009A00061E070E0CE010E94B80082ED87BD9EE05C
:1009B00088E10FB6F894A895809360000FBE9093DD
:1009C000600010929F018FE180939E01DF91CF9193
:1009D00008950E94920410E00FE0C0E0D4E0A895D2
:1009E0008091C6019091C7018532944FA8F0209163
:1009F000B4013091B501029FC001039F900D1124F5
:100A00009093B7018093B6011092B5011092B40192
:100A10001092C7011092C6018091AB01882341F06A
:100A200061E070E081EB91E00E94B8001092AB01B0
:100A300090919E01903200F580919F01981758F493
:100A4000815080939F0188E50E94BE0080919F01A4
:100A50008F710E94BE0080919F0190919E01891725
:100A600058F48F5F80939F0188E50E94BE008091BB
:100A70009F018F710E94BE001A3068F41F5F812FA2
:100A800090E0FC013197EA30F10508F043C0EA5AE2
:100A9000FF4F0C94210787E00E9468019093C901E1
:100AA0008093C80110E09BCF86E00E94680190937C
:100AB000AA018093A90193CF85E00E9468019093D9
:100AC000C3018093C2018BCF84E00E9468019093A0
:100AD000AF018093AE0183CF81E00E9468019093C3
:100AE000CB018093CA017BCF80E00E946801909384
:100AF000BF018093BE0173CF0E949F019093A80114
:100B00008093A7016CCF0E94D6019093AD01809392
:100B1000AC0165CF8AE00E9468019093B90180938F
:100B2000B8012091BC013091BD012817390720F48C
:100B30009093BD018093BC012091C0013091C1010F
:100B40008217930720F49093C1018093C001809194
:100B5000A6018F5F8093A6018D3308F440CF60918A
:100B6000BC017091BD018091C0019091C101860FBF
:100B7000971F96958795681B790B80E090E00E94FF
:100B8000070624EF3DEF44E35FE30E946D060E94F9
:100B9000D8057093BB016093BA01D093C101C09393
:100BA000C0011092BD011092BC011092A60117CF96
:100BB0000E944C0688F09F5798F0B92F9927B7519B
:100BC000B0F0E1F0660F771F881F991F1AF0BA95F1
:100BD000C9F714C0B13091F00E946606B1E00895E3
:100BE0000C946606672F782F8827B85F39F0B93FD5
:100BF000CCF3869577956795B395D9F73EF49095A4
:100C00008095709561957F4F8F4F9F4F0895E89421
:100C100009C097FB3EF490958095709561957F4F44
:100C20008F4F9F4F9923A9F0F92F96E9BB279395F2
:100C3000F695879577956795B795F111F8CFFAF402
:100C4000BB0F11F460FF1BC06F5F7F4F8F4F9F4F33
:100C500016C0882311F096E911C0772321F09EE891
:100C6000872F762F05C0662371F096E8862F70E0F7
:100C700060E02AF09A95660F771F881FDAF7880FD1
:100C80009695879597F9089557FD9058440F551FED
:100C900059F05F3F71F04795880F97FB991F61F0FE
:100CA0009F3F79F087950895121613061406551F75
:100CB000F2CF4695F1DF08C0161617061806991FE1
:100CC000F1CF86957105610508940895E894BB27D6
:100CD00066277727CB0197F908950E9480060C9428
:100CE000F1060E94E30638F00E94EA0620F0952300
:100CF00011F00C94DA060C94E00611240C946706AB
:100D00000E94440670F3959FC1F3950F50E0551F64
:100D1000629FF001729FBB27F00DB11D639FAA2750
:100D2000F00DB11DAA1F649F6627B00DA11D661F9F
:100D3000829F2227B00DA11D621F739FB00DA11DC0
:100D4000621F839FA00D611D221F749F3327A00D7A
:100D5000611D231F849F600D211D822F762F6A2F16
:100D600011249F5750409AF0F1F088234AF0EE0F7B
:100D7000FF1FBB1F661F771F881F91505040A9F7A8
:100D80009E3F510580F00C94DA060C9467065F3F95
:100D9000E4F3983ED4F3869577956795B795F795E4
:100DA000E7959F5FC1F7FE2B880F911D969587955C
:100DB00097F9089597F99F6780E870E060E00895DB
:100DC0009FEF80EC089500240A9416161706180663
:100DD0000906089500240A9412161306140605063F
:100DE0000895092E0394000C11F4882352F0BB0FD0
:100DF00040F4BF2B11F460FF04C06F5F7F4F8F4F33
:100E00009F4F0895052E97FB1EF400940E9419072A
:100E100057FD07D00E94270707FC03D04EF40C941F
:100E2000190750954095309521953F4F4F4F5F4F93
:100E3000089590958095709561957F4F8F4F9F4F46
:100E40000895EE0FFF1F0590F491E02D0994A1E2A3
:100E50001A2EAA1BBB1BFD010DC0AA1FBB1FEE1F34
:100E6000FF1FA217B307E407F50720F0A21BB30B7F
:100E7000E40BF50B661F771F881F991F1A9469F7FB
:100E800060957095809590959B01AC01BD01CF0157
:100E900008950F931F93CF93DF938230910510F441
:100EA00082E090E0E091CE01F091CF0120E030E0CF
:100EB000A0E0B0E0309719F14081518102811381A7
:100EC00048175907C8F08417950769F4109731F04F
:100ED00012960C93129713961C9327C00093CE0181
:100EE0001093CF0122C02115310519F04217530785
:100EF00018F49A01BD01EF01DF01F801DBCF2115E4
:100F00003105F9F0281B390B2430310580F48A8132
:100F10009B816115710521F0FB019383828304C0DD
:100F20009093CF018093CE01FE01329644C0FE0122
:100F3000E20FF31F81939193225031093983288363
:100F40003AC02091CC013091CD01232B41F4209166
:100F5000A2013091A3013093CD012093CC012091C7
:100F6000A0013091A1012115310541F42DB73EB703
:100F70004091A4015091A501241B350BE091CC01B7
:100F8000F091CD01E217F307A0F42E1B3F0B2817B9
:100F9000390778F0AC014E5F5F4F2417350748F0F2
:100FA0004E0F5F1F5093CD014093CC0181939193DD
:100FB00002C0E0E0F0E0CF01DF91CF911F910F91EF
:100FC0000895CF93DF93009709F481C0FC01329715
:100FD00013821282A091CE01B091CF01109781F4BB
:100FE00020813181820F931F2091CC013091CD015E
:100FF0002817390751F5F093CD01E093CC0167C074
:10100000ED0120E030E0CE17DF0740F44A815B813C
:101010009E0141155105F1F0EA01F5CFD383C2835A
:1010200040815181840F951FC817D90759F48881D1
:101030009981840F951F0296918380838A819B8179
:10104000938382832115310529F4F093CF01E09336
:10105000CE013DC0E901FB83EA8349915991C40F58
:10106000D51FEC17FD0761F480819181840F951FD6
:101070000296E90199838883828193819B838A8385
:10108000E0E0F0E012968D919C911397009719F093
:10109000FD01DC01F7CF8D919C9111979D012E5F91
:1010A0003F4F820F931F2091CC013091CD01281723
:1010B000390769F4309729F41092CF011092CE01CC
:1010C00002C013821282B093CD01A093CC01DF91B4
:0810D000CF910895F894FFCFC1
:1010D8001100000001000000C100A801B101450194
:1010E8000401C50080016C01C600BD018401C70070
:1010F800BD018401BD00020111000000F2000001E1
:101108000001820126000801E00000010401080135
:101118000B010C0111010D010E0100010401080170
:10112800130114012F0129012401E1000001040128
:1011380008010B010C0111010D010E010001040150
:101148000801130114012F012901240126000801B7
:10115800FD000001080129008000F801460205038E
:10116800400440054006400740084009030A1F1F85
:061178000000D001200080
:00000001FF
