:100000000C945D000C947A000C947A000C947A00A5
:100010000C947A000C947A000C947A000C947A0078
:100020000C947A000C9402020C947A000C947A00DE
:100030000C947A000C947A000C947A000C947A0058
:100040000C947A000C947A000C947A000C947A0048
:100050000C947A000C947A000C947A000C941B0295
:100060000C947A000C947A000C947A000C947A0028
:100070000C947A000C947A000C947A000C947A0018
:100080000C947A000C947A000C947A000C947A0008
:100090000C9432020C947A000C947A000C947A003E
:1000A0000C947A000C947A000C947A00EC04F4041A
:1000B000FC0404050C0514051B0511241FBECFEF1D
:1000C000DAE0DEBFCDBF11E0A0E0B1E0E8E1FDE0A5
:1000D00002C005900D92AE31B107D9F721E0AEE133
:1000E000B1E001C01D92A134B207E1F70E947E0485
:1000F0000C948A060C9400002AB1242B2AB92BB147
:10010000342F309523233BB1432B3FB7F894FC01A8
:10011000680F791FE617F707C1F0819198E04BB996
:10012000000000C087FF2BB9880F000000C000C08E
:1001300000C02BB900C000C000C000C000C000C09B
:1001400000C000C09A9559F7E5CF3FBF08959B01C5
:10015000220F331F620F731F0E947C008FEA94E00E
:100160000197F1F700C00000089540E20C94A70049
:1001700040E20C947C0027E030E090E05C98EFE8EF
:10018000F1E03197F1F700C00000AC01022E02C08F
:10019000559547950A94E2F7BA016170772740FDBB
:1001A00006C0EFE8F1E03197F1F700C000005C9A7B
:1001B000EFE8F1E03197F1F700C00000672B31F074
:1001C000EFE8F1E03197F1F700C00000215031096C
:1001D000A8F65C988FE891E00197F1F700C0000065
:1001E0005C9AEFE8F1E03197F1F700C00000089564
:1001F0005C988FE79EE30197F1F700C000005C9ADE
:100200008FED91E00197F1F700C000005C988FEC52
:1002100097E00197F1F700C000005C9A9AE19A9587
:10022000F1F700C00895AC015C98E1E0F0E02A9895
:1002300095B18FEF860F9F0102C0220F331F8A9561
:10024000E2F724233523232B11F420E001C024E01E
:10025000922B95B929988FE891E00197F1F700C0AA
:100260000000299A8FE891E00197F1F700C00000A3
:100270006150E9F62A985C9A0895CF93DF93C0E025
:10028000D1E060E1899199910E94130181E0C6312A
:10029000D807B9F7DF91CF91089590917A009760D0
:1002A00090937A0090E490937B0090937C009091DF
:1002B0007C008F71982B90937C0080917A008068ED
:1002C00080937A008FE39FE10197F1F700C000006F
:1002D00080917A00806480937A0080917A0086FD14
:1002E000FCCF809178002091790090E0922B0895C6
:1002F0008EE580937C0080917A00806880937A00FC
:1003000080917B008F7D80937B008FE39FE101973D
:10031000F1F700C0000080917A00806480937A0039
:1003200080917A0086FDFCCF80917A008064809372
:100330007A0080917A0086FDFCCF20917800809130
:10034000790030E0382B032E000C440B550B64EB86
:100350007BE281E190E00E942205C901089587ECCB
:1003600080937C0080E280937B0080917A00877D7F
:1003700080937A0080917A00806880937A008FE37E
:100380009FE10197F1F700C0000080917A0080643E
:1003900080937A0080917A0086FDFCCF80917A006C
:1003A000806480937A0080917A0086FDFCCF8091F2
:1003B00078002091790090E0922B0895CF93DF93FD
:1003C00000D0CDB7DEB720913D0130913E0121151F
:1003D000310511F421E431E0CE010196821B930B2B
:1003E0000F900F90DF91CF910895F894880F80932C
:1003F000BA0085EC8093BC008FEF80932701809337
:10040000360108951F920F920FB60F9211248F9309
:100410009F93189909C080912B0190912C0101960E
:1004200090932C0180932B019F918F910F900FBE81
:100430000F901F9018951F920F920FB60F921124D4
:100440008F939F93809137019091380101969093FB
:100450003801809337019F918F910F900FBE0F90BD
:100460001F9018951F920F920FB60F9211242F9381
:100470003F934F935F936F937F938F939F93AF932C
:10048000BF93EF93FF938091B900887F803661F02E
:1004900028F48111DAC11092BC00D7C1803859F01C
:1004A000883A09F4A2C0D1C185EC8093BC008FEFDB
:1004B00080932701CDC1209127012F3F49F48091DE
:1004C000BB00809335011092270110923601BDC107
:1004D0002F5F209327019091350131E09C3809F07E
:1004E00030E081E0213009F080E0332339F08823C7
:1004F00029F08091BB0080932901A7C1223039F4F3
:10050000332389F08091BB00809328019EC1233062
:1005100051F4332341F08091BB0080932A0181E0A4
:100520008093220192C1973841F4882309F48DC148
:100530008091BB008093160188C19D3859F48823AF
:1005400009F483C18091BB008F3F11F4469A7DC1AD
:1005500046987BC19E3859F4882309F476C180916E
:10056000BB008F3F11F42C9A70C12C986EC19F383C
:1005700059F4882309F469C18091BB008F3F11F4BD
:100580002E9A63C12E9861C1903959F4882309F4D9
:100590005CC18091BB008F3F11F4479A56C14798C8
:1005A00054C1913959F4882309F44FC18091BB009B
:1005B0008F3F11F4729A49C1729847C1923959F428
:1005C000882309F442C18091BB008F3F11F42D9A1A
:1005D0003CC12D983AC1933909F037C1882309F4F9
:1005E00034C18091BB0087BD30C19091350131E0AD
:1005F000911130E04091360181E0411180E03323D8
:1006000029F0882319F08091390111C121E041308E
:1006100009F020E0332329F0222319F080913A01D8
:1006200006C131E0913009F030E0882329F033230E
:1006300019F080912001FBC0222329F0332319F007
:1006400080912101F4C031E0923009F030E088233C
:1006500029F0332319F080913301E9C0222329F0D6
:10066000332319F080913401E2C031E0933009F076
:1006700030E0882329F0332319F080912501D7C079
:10068000222329F0332319F080912601D0C031E0D4
:10069000943009F030E0882329F0332319F0809159
:1006A0003B01C5C0222329F0332319F080913C017E
:1006B000BEC031E0953009F030E0882329F03323C3
:1006C00019F080913101B3C0222329F0332319F0AE
:1006D00080913201ACC031E0963009F030E08823DF
:1006E00029F0332319F080912F01A1C0222329F092
:1006F000332319F0809130019AC0973029F4882370
:1007000019F08091170193C031E0983009F030E082
:10071000882329F0332319F080912D0188C02223EA
:1007200029F0332319F080912E0181C031E09930F6
:1007300009F030E0882329F0332319F080911E015D
:1007400076C0222329F0332319F080911F016FC056
:1007500031E09A3009F030E0882329F0332319F092
:100760008091230164C0222329F0332319F0809162
:1007700024015DC031E09B3009F030E0882329F08E
:10078000332319F00E94DE0152C0222339F03323B3
:1007900029F00E94DE019093BB004EC031E09C30F6
:1007A00009F030E0882329F0332319F080912901E2
:1007B0003EC0222329F0332319F08091280137C04D
:1007C000423029F4332319F080912A0130C09D3042
:1007D00029F4882379F1369B2DC022C09E3029F45C
:1007E000882341F11C9B26C01BC09F3029F488231D
:1007F00009F11E9B1FC014C0903129F48823D1F049
:10080000379B18C00DC0913129F4882399F0629B61
:1008100011C006C0923131F4882361F01D9B0AC0DB
:100820008FEF05C0933131F4882321F087B5809391
:10083000BB0002C01092BB00809136018F5F809395
:10084000360185E08A95F1F7000085EC8093BC00C5
:10085000FF91EF91BF91AF919F918F917F916F9198
:100860005F914F913F912F910F900FBE0F901F906E
:100870001895CF93DF9310BA88E78AB91DB886EF31
:1008800084B980EC87B98EEB87BD81E085BD81E8B6
:1008900084BDEEE6F0E080818160808390E080E8B6
:1008A0000FB6F89480936100909361000FBE8AE2C6
:1008B0000E94F501E8E6F0E0808181608083EBE64C
:1008C000F0E08081816080837894C8E2D1E08FEF8E
:1008D000898388838A8361E070E0CE010E94B5003D
:1008E0000E943D010E94F800198218821A8261E07C
:1008F00070E0CE01DF91CF910C94B5000E943904D5
:10090000C0E0DFE080913701909138018532944F4B
:10091000A8F020912B0130912C01D29FC001D39FD0
:10092000900D112490932E0180932D0110922C0193
:1009300010922B0110923801109237018091220100
:10094000882341F061E070E088E291E00E94B50008
:10095000109222018091170190911601981758F476
:1009600081508093170188E50E94BB008091170198
:100970008F710E94BB008091170190911601891719
:1009800058F48F5F8093170188E50E94BB00809127
:1009900017018F710E94BB00C83060F4CF5F8C2FAD
:1009A00090E0FC013297E730F10568F4EA5AFF4F16
:1009B0000C94410587E00E944D0190933A01809389
:1009C0003901C0E09FCF86E00E944D019093210144
:1009D00080932001C1E096CF85E00E944D01909365
:1009E0003401809333018ECF84E00E944D019093B7
:1009F00026018093250186CF81E00E944D019093CE
:100A00003C0180933B017ECF80E00E944D0190939A
:100A100032018093310176CF8AE00E944D0190939C
:100A2000300180932F016ECF0E94780190931F01B7
:100A300080931E0167CF0E94AF01909324018093A1
:100A4000230160CF052E97FB1EF400940E94390508
:100A500057FD07D00E94470507FC03D04EF40C94C5
:100A6000390550954095309521953F4F4F4F5F4F39
:100A7000089590958095709561957F4F8F4F9F4F0A
:100A80000895EE0FFF1F0590F491E02D0994A1E267
:100A90001A2EAA1BBB1BFD010DC0AA1FBB1FEE1FF8
:100AA000FF1FA217B307E407F50720F0A21BB30B43
:100AB000E40BF50B661F771F881F991F1A9469F7BF
:100AC00060957095809590959B01AC01BD01CF011B
:100AD00008950F931F93CF93DF938230910510F405
:100AE00082E090E0E0913F01F091400120E030E0B1
:100AF000A0E0B0E0309719F140815181028113816B
:100B000048175907C8F08417950769F4109731F012
:100B100012960C93129713961C9327C000933F01D3
:100B20001093400122C02115310519F042175307D7
:100B300018F49A01BD01EF01DF01F801DBCF2115A7
:100B40003105F9F0281B390B2430310580F48A81F6
:100B50009B816115710521F0FB019383828304C0A1
:100B60009093400180933F01FE01329644C0FE0104
:100B7000E20FF31F81939193225031093983288327
:100B80003AC020913D0130913E01232B41F4209148
:100B90001A0130911B0130933E0120933D012091B9
:100BA0001801309119012115310541F42DB73EB7D7
:100BB00040911C0150911D01241B350BE0913D011A
:100BC000F0913E01E217F307A0F42E1B3F0B28170C
:100BD000390778F0AC014E5F5F4F2417350748F0B6
:100BE0004E0F5F1F50933E0140933D0181939193BF
:100BF00002C0E0E0F0E0CF01DF91CF911F910F91B3
:100C00000895CF93DF93009709F481C0FC013297D8
:100C100013821282A0913F01B0914001109781F49C
:100C200020813181820F931F20913D0130913E013F
:100C30002817390751F5F0933E01E0933D0167C055
:100C4000ED0120E030E0CE17DF0740F44A815B8100
:100C50009E0141155105F1F0EA01F5CFD383C2831E
:100C600040815181840F951FC817D90759F4888195
:100C70009981840F951F0296918380838A819B813D
:100C8000938382832115310529F4F0934001E09389
:100C90003F013DC0E901FB83EA8349915991C40FAB
:100CA000D51FEC17FD0761F480819181840F951F9A
:100CB0000296E90199838883828193819B838A8349
:100CC000E0E0F0E012968D919C911397009719F057
:100CD000FD01DC01F7CF8D919C9111979D012E5F55
:100CE0003F4F820F931F20913D0130913E01281705
:100CF000390769F4309729F41092400110923F01AE
:100D000002C013821282B0933E01A0933D01DF9195
:080D1000CF910895F894FFCF84
:100D18008000F801460205034004400540064007EC
:0E0D280040084009030A1F1F0000410120007F
:00000001FF
