:100000000C945D000C947A000C947A000C947A00A5
:100010000C947A000C947A000C947A000C947A0078
:100020000C947A000C941A020C947A000C947A00C6
:100030000C947A000C947A000C947A000C947A0058
:100040000C947A000C947A000C947A000C947A0048
:100050000C947A000C947A000C947A000C9433027D
:100060000C947A000C947A000C947A000C947A0028
:100070000C947A000C947A000C947A000C947A0018
:100080000C947A000C947A000C947A000C947A0008
:100090000C944A020C947A000C947A000C947A0026
:1000A0000C947A000C947A000C947A0007050F05E2
:1000B00017051F0527052F05360511241FBECFEF95
:1000C000DAE0DEBFCDBF11E0A0E0B1E0EEE4FDE09C
:1000D00002C005900D92A63AB107D9F721E0A6EA31
:1000E000B1E001C01D92A93CB207E1F70E9499045A
:1000F0000C94A5060C9400002AB1242B2AB92BB12C
:10010000342F309523233BB1432B3FB7F894FC01A8
:10011000680F791FE617F707C1F0819198E04BB996
:10012000000000C087FF2BB9880F000000C000C08E
:1001300000C02BB900C000C000C000C000C000C09B
:1001400000C000C09A9559F7E5CF3FBF08959B01C5
:10015000220F331F620F731F0E947C008FEA94E00E
:100160000197F1F700C00000089540E20C94A70049
:1001700040E20C947C0027E030E090E05C98EFE8EF
:10018000F1E03197F1F700C00000AC01022E02C08F
:10019000559547950A94E2F7BA016170772740FDBB
:1001A00006C0EFE8F1E03197F1F700C000005C9A7B
:1001B000EFE8F1E03197F1F700C00000672B31F074
:1001C000EFE8F1E03197F1F700C00000215031096C
:1001D000A8F65C988FE891E00197F1F700C0000065
:1001E0005C9AEFE8F1E03197F1F700C00000089564
:1001F0005C988FE79EE30197F1F700C000005C9ADE
:100200008FED91E00197F1F700C000005C988FEC52
:1002100097E00197F1F700C000005C9A9AE19A9587
:10022000F1F700C00895AC015C98E1E0F0E02A9895
:1002300095B18FEF860F9F0102C0220F331F8A9561
:10024000E2F724233523232B11F420E001C024E01E
:10025000922B95B929988FE891E00197F1F700C0AA
:100260000000299A8FE891E00197F1F700C00000A3
:100270006150E9F62A985C9A0895CF93DF93C8E815
:10028000D1E060E1899199910E94130121E0CE397A
:10029000D207B9F7C0E0D1E081E0C838D80791F0C3
:1002A00089919991009751F48FEF9BED25E0815052
:1002B00090402040E1F700C00000EECF69E00E94CE
:1002C0001301EACFDF91CF91089590917A00976062
:1002D00090937A0090E490937B0090937C009091AF
:1002E0007C008F71982B90937C0080917A008068BD
:1002F00080937A008FE39FE10197F1F700C000003F
:1003000080917A00806480937A0080917A0086FDE3
:10031000FCCF809178002091790090E0922B089595
:100320008EE580937C0080917A00806880937A00CB
:1003300080917B008F7D80937B008FE39FE101970D
:10034000F1F700C0000080917A00806480937A0009
:1003500080917A0086FDFCCF80917A008064809342
:100360007A0080917A0086FDFCCF20917800809100
:10037000790030E0382B032E000C440B550B64EB56
:100380007BE281E190E00E943D05C901089587EC80
:1003900080937C0080E280937B0080917A00877D4F
:1003A00080937A0080917A00806880937A008FE34E
:1003B0009FE10197F1F700C0000080917A0080640E
:1003C00080937A0080917A0086FDFCCF80917A003C
:1003D000806480937A0080917A0086FDFCCF8091C2
:1003E00078002091790090E0922B0895CF93DF93CD
:1003F00000D0CDB7DEB72091C5013091C6012115DF
:10040000310511F429EC31E0CE010196821B930BEA
:100410000F900F90DF91CF910895F894880F8093FB
:10042000BA0085EC8093BC008FEF8093AF0180937E
:10043000BE0108951F920F920FB60F9211248F9351
:100440009F93189909C08091B3019091B4010196CE
:100450009093B4018093B3019F918F910F900FBE41
:100460000F901F9018951F920F920FB60F921124A4
:100470008F939F938091BF019091C00101969093BB
:10048000C0018093BF019F918F910F900FBE0F907D
:100490001F9018951F920F920FB60F9211242F9351
:1004A0003F934F935F936F937F938F939F93AF93FC
:1004B000BF93EF93FF938091B900887F803661F0FE
:1004C00028F48111DAC11092BC00D7C1803859F0EC
:1004D000883A09F4A2C0D1C185EC8093BC008FEFAB
:1004E0008093AF01CDC12091AF012F3F49F480919E
:1004F000BB008093BD011092AF011092BE01BDC13F
:100500002F5F2093AF019091BD0131E09C3809F03D
:1005100030E081E0213009F080E0332339F0882396
:1005200029F08091BB008093B101A7C1223039F43A
:10053000332389F08091BB008093B0019EC12330AA
:1005400051F4332341F08091BB008093B20181E0EC
:100550008093AA0192C1973841F4882309F48DC190
:100560008091BB0080939E0188C19D3859F48823F7
:1005700009F483C18091BB008F3F11F4469A7DC17D
:1005800046987BC19E3859F4882309F476C180913E
:10059000BB008F3F11F42C9A70C12C986EC19F380C
:1005A00059F4882309F469C18091BB008F3F11F48D
:1005B0002E9A63C12E9861C1903959F4882309F4A9
:1005C0005CC18091BB008F3F11F4479A56C1479898
:1005D00054C1913959F4882309F44FC18091BB006B
:1005E0008F3F11F4729A49C1729847C1923959F4F8
:1005F000882309F442C18091BB008F3F11F42D9AEA
:100600003CC12D983AC1933909F037C1882309F4C8
:1006100034C18091BB0087BD30C19091BD0131E0F4
:10062000911130E04091BE0181E0411180E033231F
:1006300029F0882319F08091C10111C121E04130D6
:1006400009F020E0332329F0222319F08091C20120
:1006500006C131E0913009F030E0882329F03323DE
:1006600019F08091A801FBC0222329F0332319F04F
:100670008091A901F4C031E0923009F030E0882384
:1006800029F0332319F08091BB01E9C0222329F01E
:10069000332319F08091BC01E2C031E0933009F0BE
:1006A00030E0882329F0332319F08091AD01D7C0C1
:1006B000222329F0332319F08091AE01D0C031E01C
:1006C000943009F030E0882329F0332319F0809129
:1006D000C301C5C0222329F0332319F08091C4013E
:1006E000BEC031E0953009F030E0882329F0332393
:1006F00019F08091B901B3C0222329F0332319F0F6
:100700008091BA01ACC031E0963009F030E0882326
:1007100029F0332319F08091B701A1C0222329F0D9
:10072000332319F08091B8019AC0973029F48823B7
:1007300019F080919F0193C031E0983009F030E0CA
:10074000882329F0332319F08091B50188C0222332
:1007500029F0332319F08091B60181C031E099303E
:1007600009F030E0882329F0332319F08091A601A5
:1007700076C0222329F0332319F08091A7016FC09E
:1007800031E09A3009F030E0882329F0332319F062
:100790008091AB0164C0222329F0332319F08091AA
:1007A000AC015DC031E09B3009F030E0882329F0D6
:1007B000332319F00E94F60152C0222339F033236B
:1007C00029F00E94F6019093BB004EC031E09C30AE
:1007D00009F030E0882329F0332319F08091B1012A
:1007E0003EC0222329F0332319F08091B00137C095
:1007F000423029F4332319F08091B20130C09D308A
:1008000029F4882379F1369B2DC022C09E3029F42B
:10081000882341F11C9B26C01BC09F3029F48823EC
:1008200009F11E9B1FC014C0903129F48823D1F018
:10083000379B18C00DC0913129F4882399F0629B31
:1008400011C006C0923131F4882361F01D9B0AC0AB
:100850008FEF05C0933131F4882321F087B5809361
:10086000BB0002C01092BB008091BE018F5F8093DD
:10087000BE0185E08A95F1F7000085EC8093BC000D
:10088000FF91EF91BF91AF919F918F917F916F9168
:100890005F914F913F912F910F900FBE0F901F903E
:1008A0001895CF93DF9310BA88E78AB91DB886EF01
:1008B00084B980EC87B98EEB87BD81E085BD81E886
:1008C00084BDEEE6F0E080818160808390E080E886
:1008D0000FB6F89480936100909361000FBE8AE296
:1008E0000E940D02E8E6F0E0808181608083EBE603
:1008F000F0E08081816080837894C0EBD1E08FEF5D
:10090000898388838A8361E070E0CE010E94B5000C
:100910000E943D010E94F800198218821A8261E04B
:1009200070E0CE010E94B50087ED87BDDF91CF91C9
:1009300008950E945104C0E0DFE08091BF019091D2
:10094000C0018532944FA8F02091B3013091B401D9
:10095000D29FC001D39F900D11249093B601809334
:10096000B5011092B4011092B3011092C00110921F
:10097000BF018091AA01882341F061E070E080EB23
:1009800091E00E94B5001092AA0180919F01909180
:100990009E01981758F4815080939F0188E50E942A
:1009A000BB0080919F018F710E94BB0080919F01CD
:1009B00090919E01891758F48F5F80939F0188E57D
:1009C0000E94BB0080919F018F710E94BB00C830C4
:1009D00060F4CF5F8C2F90E0FC013297E730F10597
:1009E00068F4EA5AFF4F0C945C0587E00E946501A9
:1009F0009093C2018093C101C0E09FCF86E00E9426
:100A000065019093A9018093A801C1E096CF85E08C
:100A10000E9465019093BC018093BB018ECF84E05E
:100A20000E9465019093AE018093AD0186CF81E075
:100A30000E9465019093C4018093C3017ECF80E042
:100A40000E9465019093BA018093B90176CF8AE044
:100A50000E9465019093B8018093B7016ECF0E9408
:100A600090019093A7018093A60167CF0E94C701D0
:100A70009093AC018093AB0160CF052E97FB1EF4E1
:100A800000940E94540557FD07D00E94620507FCA0
:100A900003D04EF40C945405509540953095219513
:100AA0003F4F4F4F5F4F089590958095709561959A
:100AB0007F4F8F4F9F4F0895EE0FFF1F0590F491CA
:100AC000E02D0994A1E21A2EAA1BBB1BFD010DC04B
:100AD000AA1FBB1FEE1FFF1FA217B307E407F507EE
:100AE00020F0A21BB30BE40BF50B661F771F881FCA
:100AF000991F1A9469F760957095809590959B0160
:100B0000AC01BD01CF0108950F931F93CF93DF93E5
:100B10008230910510F482E090E0E091C701F091FD
:100B2000C80120E030E0A0E0B0E0309719F140814A
:100B300051810281138148175907C8F0841795071E
:100B400069F4109731F012960C93129713961C9338
:100B500027C00093C7011093C80122C02115310599
:100B600019F04217530718F49A01BD01EF01DF0194
:100B7000F801DBCF21153105F9F0281B390B2430A2
:100B8000310580F48A819B816115710521F0FB019B
:100B90009383828304C09093C8018093C701FE01B0
:100BA000329644C0FE01E20FF31F819391932250CD
:100BB0003109398328833AC02091C5013091C6019B
:100BC000232B41F42091A2013091A3013093C6015F
:100BD0002093C5012091A0013091A101211531057B
:100BE00041F42DB73EB74091A4015091A501241BBB
:100BF000350BE091C501F091C601E217F307A0F4AF
:100C00002E1B3F0B2817390778F0AC014E5F5F4F62
:100C10002417350748F04E0F5F1F5093C6014093CD
:100C2000C5018193919302C0E0E0F0E0CF01DF9134
:100C3000CF911F910F910895CF93DF93009709F4FF
:100C400081C0FC01329713821282A091C701B0913A
:100C5000C801109781F420813181820F931F209168
:100C6000C5013091C6012817390751F5F093C60127
:100C7000E093C50167C0ED0120E030E0CE17DF074B
:100C800040F44A815B819E0141155105F1F0EA0172
:100C9000F5CFD383C28340815181840F951FC8173C
:100CA000D90759F488819981840F951F0296918301
:100CB00080838A819B81938382832115310529F466
:100CC000F093C801E093C7013DC0E901FB83EA83CB
:100CD00049915991C40FD51FEC17FD0761F480812C
:100CE0009181840F951F0296E901998388838281FF
:100CF00093819B838A83E0E0F0E012968D919C9132
:100D00001397009719F0FD01DC01F7CF8D919C91AD
:100D100011979D012E5F3F4F820F931F2091C501B8
:100D20003091C6012817390769F4309729F41092D9
:100D3000C8011092C70102C013821282B093C6018B
:0E0D4000A093C501DF91CF910895F894FFCFE5
:100D4E001100000001000000C100A801B101450121
:100D5E000401C50080016C01C600BD018401C700FD
:100D6E00BD018401BD00020111000000F20000016E
:100D7E000001820126000801E000000104010801C3
:100D8E000B010C0111010D010E01000104010801FE
:100D9E00130114012F0129012401E10000010401B6
:100DAE0008010B010C0111010D010E0100010401DE
:100DBE000801130114012F01290124012600080145
:100DCE00FD000001080129008000F801460205031C
:100DDE00400440054006400740084009030A1F1F13
:060DEE000000C901200015
:00000001FF
